:020000040800F2
:100000007007002051300008CD040008CF0400081C
:10001000D3040008D7040008DB0400080000000037
:10002000000000000000000000000000DF040008E5
:10003000E104000800000000E3040008E5040008F3
:100040006B3000086B3000086B3000086B30000824
:100050006B3000086B3000086B3000086B30000814
:100060006B3000086B3000086B3000086B30000804
:100070006B3000086B3000086B3000086B300008F4
:100080006B3000086B3000086B3000086B300008E4
:100090006B3000086B3000086B3000086B300008D4
:1000A0006B3000086B3000086B3000086B300008C4
:1000B0006B3000086B3000086B3000086B300008B4
:1000C0006B3000086B3000086B3000086B300008A4
:1000D0006B300008C72F00086B3000086B30000839
:1000E0006B3000086B3000086B3000086B30000884
:1000F0006B3000086B3000086B3000086B30000874
:100100006B3000086B3000086B3000086B30000863
:100110006B3000086B3000086B3000086B30000853
:100120006B3000086B3000086B3000086B30000843
:1001300000F002F800F03FF80AA090E8000C8244BA
:100140008344AAF10107DA4501D100F034F8AFF297
:10015000090EBAE80F0013F0010F18BFFB1A43F0A5
:10016000010318478C580000AC580000103A24BF17
:1001700078C878C1FAD8520724BF30C830C144BF0C
:1001800004680C607047000000230024002500264E
:10019000103A28BF78C1FBD8520728BF30C148BFEA
:1001A0000B607047782904F0B180002070471FB5BC
:1001B0001FBD10B510BD04F065F91146FFF7F7FF3C
:1001C00000F008F804F083F903B4FFF7F2FF03BC72
:1001D00002F09CFE1CB502F02BFE02F091FE4FF4E3
:1001E000165002F0A1FE00F06DFA00F095FD02F04D
:1001F000A3FC4FF478409C4908809CA010210B463A
:10020000C822CDE900103C21322002F036FC9CA02F
:1002100010210B46C822CDE900105021322002F0F7
:100220002CFC9CA010210B46C822CDE900106421B3
:10023000322002F022FC9CA010210B46C822CDE9FE
:1002400000107821322002F018FC1F208649088017
:1002500009E1C221E32002F0BEFD8246504604F0CF
:10026000CBFA964A964BCDE9000104F0D9FA05463F
:100270000022944B04F068F9074604F033F9044671
:100280008020102105235246CDE9001014217A2048
:1002900002F094FB204604F0E5FC1FFA80F9802070
:1002A000102102234A46CDE900103C217A2002F0B9
:1002B00085FB484604F0F6FC0746214604F0D2FDD3
:1002C0000646814904F002FD054604F0CBFC1FFA06
:1002D00080FA8020102103235246CDE900103C21F2
:1002E000922002F06BFBD221E32002F074FD8246E3
:1002F000504604F081FA0746704A714B04F090FAB8
:10030000054600226F4B04F01FF9CDE9000104F00F
:10031000E9F80446204604F0A5FC1FFA80F9802085
:10032000102102234A46CDE9001050217A2002F024
:1003300045FB484604F0B6FC0746214604F092FD12
:100340000646614904F0C2FC054604F08BFC1FFA26
:1003500080FA8020102103235246CDE9001050215D
:10036000922002F02BFBE221E32002F034FD8246D2
:10037000504604F041FA0546504A514B04F050FAF9
:10038000074600224F4B04F0DFF8CDE9000104F0EE
:10039000A9F80446204604F065FC1FFA80F9802085
:1003A000102102234A46CDE9001064217A2002F090
:1003B00005FB484604F076FC0746214604F052FD52
:1003C0000646414904F082FC054604F04BFC1FFA46
:1003D00080FA8020102103235246CDE900106421C9
:1003E000922002F0EBFAF221E32002F0F4FC8246C4
:1003F000504604F001FA0746304A314B04F010FA37
:10040000054600222F4B04F09FF8CDE9000104F0CF
:1004100069F80446204604F025FC1FFA80F9802084
:10042000102102234A46CDE9001078217A2002F0FB
:10043000C5FA484604F036FC0746214604F012FD92
:100440000646214904F042FC054604F00BFC1FFA65
:1004500080FA8020102103235246CDE90010782134
:10046000922002F0ABFAF4E614000020566F6C7490
:10047000616765313A30302E303030560000000070
:10048000566F6C74616765323A30302E30303056BA
:1004900000000000566F6C74616765333A30302E8F
:1004A0003030305600000000566F6C746167653460
:1004B0003A30302E3030305600000000FCA9F1D226
:1004C0004D622040E0FFEF4000007A44704700BFDB
:1004D000FEE700BFFEE700BFFEE700BFFEE7704794
:1004E00070477047704700000CB5002001900090E5
:1004F0006B48006840F480306949086000BF684874
:10050000006800F4003000900198401C01900098B1
:1005100018B90198B0F5A06FF1D16148006810F4E6
:10052000003F02D00120009001E0002000900098E0
:10053000012842D15B48006840F01000594908602A
:100540000846006820F0030008600846006840F094
:1005500002000860524840685149486008464068B7
:1005600048600846406840F480604860084640683B
:1005700020F47C1048600846406840F4E810486069
:100580000846006840F08070086000BF444800687A
:1005900010F0007FFAD04248406820F00300404944
:1005A00048600846406840F00200486000BF3C4890
:1005B000406800F00C000828F9D10CBD10B5FFF719
:1005C00093FF10BD10B53648006840F00100344973
:1005D0000860084640683449084031494860084688
:1005E0000068324908402E4908600846006820F437
:1005F000802008600846406820F4FE0048604FF400
:100600001F008860FFF7DAFF4FF00060284908609C
:1006100010BD10B5002100200022214B5B6803F0C3
:100620000C0121B1042906D0082928D107E0214B6B
:10063000214C236027E01F4B1F4C236023E0184B05
:100640005B6803F47010164B5B6803F4803202237E
:1006500003EB904022B9194B4343174C23600DE044
:100660000F4B5B6813F4003F04D0144B4343124C10
:10067000236003E00F4B43430F4C236003E00D4B1B
:100680000D4C236000BF00BF054B5B68C3F3031331
:100690000B4CE15C084B1B68CB40074C236010BD42
:1006A00000100240002002400000FFF8FFFFF6FEAD
:1006B00008ED00E000127A000000002000093D0073
:1006C0000400002008B50121482003F071FB05203B
:1006D000ADF8000010208DF8030003208DF8020013
:1006E0006946044803F0AEF80521024803F055F9C5
:1006F00008BD0000001801404FF0C041088070475D
:10070000FB4908807047FA48008870474FF0C042A4
:100710001080F74A1180704700B502461046FFF777
:10072000EBFFFFF7F0FF00BDF248C0794FF0C0418A
:1007300008807047EE490880704730B5014601F0E7
:100740001F04C1F34513CA0AE50205EB431515441E
:10075000A8B230BD00BF0100A0F10102D0B2FAD1B1
:10076000704710B503460C46E2488088A0F5134157
:10077000413905D0DF488088A0F5D041043914D133
:10078000DC49087AFFF7B8FF1812FFF7B9FFD8B2B3
:10079000FFF7B6FFD749487AFFF7AEFF2012FFF701
:1007A000AFFFE0B2FFF7ACFF12E0D248807901283A
:1007B00004D1D0480088401EC01A83B2CD49087ABF
:1007C0001946FFF7A3FFCB49487A2146FFF79EFF62
:1007D00010BD2DE9F04105460E4600240027A04635
:1007E000C4480088A84203DDC2484088B04202DC09
:1007F0000020BDE8F08131462846FFF7B2FFBD4832
:100800008088A0F51341413905D0BA488088A0F509
:10081000D041043903D12E20FFF76EFF02E02220E1
:10082000FFF76AFFB3488088A0F51341203902D151
:100830000220FFF78FFFAE48008800B1002402209D
:10084000FFF788FFAA480488AA488088A0F51341CA
:1008500041390BD10220FFF77DFFA548B0F8008099
:10086000E7B24FF6FF7000EA072707E0A14880884B
:10087000A0F5D041043901D19D4804889D48808865
:10088000A0F51341253917D09A488088A0F58A41F0
:10089000353911D097488088A0F58A4131390BD07D
:1008A00094488088A0F50941893905D0914880880D
:1008B000A0F53541053901D120469AE78D48808859
:1008C000A0F51341413907D1E012C002B91240EA44
:1008D000411040EAE8208CE72046FFF72EFF88E72A
:1008E00000B584488088A0F51341413905D081487E
:1008F0008088A0F5D041043903D12920FFF7FCFE00
:1009000004E040F273110720FFF700FF00BD00B5BF
:1009100078488088A0F51341413905D07548808812
:10092000A0F5D041043903D12820FFF7E5FE03E00C
:1009300000210720FFF7EAFE00BDF0B505460024C0
:1009400000276C48807901281ED16A488088A0F56C
:10095000D041043918D0082D15D2DFE805F004067F
:10096000080A0C0E101206250DE007250BE00425E1
:1009700009E0052507E0012505E0002503E0032542
:1009800001E0022500BF00BF5A488088A0F513414E
:10099000413905D057488088A0F5D04104397CD131
:1009A000082D1CD2DFE805F00406090C0F121518FB
:1009B00000BF14E044F0800411E044F040040EE075
:1009C00044F0C0040BE044F0200408E044F060046C
:1009D00005E044F0A00402E044F0E00400BF00BFE2
:1009E000362744F0080443488088A0F5D0410439F4
:1009F00001D144F0020421463846FFF787FE14F087
:100A0000200F0DD03B4800883A494988884214DAC3
:100A100038480688408837490880084646800CE0F8
:100A20003448008833494988884206DD31480688C1
:100A3000408830490880084646802E49087AFFF7EA
:100A40005BFE0020FFF75CFE0020FFF759FE2949FE
:100A50000988491EC1F30F20FFF752FE2549097886
:100A6000491EC8B2FFF74CFE2249487AFFF744FE00
:100A70000020FFF745FE0020FFF742FE1D49498890
:100A8000491EC1F30F20FFF73BFE1A498978491E22
:100A9000C8B2FFF735FE36E0FFE7082D1CD2DFE8CD
:100AA00005F004070A0D0F12151844F0300413E086
:100AB00044F0100410E044F020040DE000BF0BE00F
:100AC00044F0380408E044F0280405E044F0180439
:100AD00002E044F0080400BF00BF06488088A0F58B
:100AE0000941893908D1112746F24000044306E044
:100AF0000000026038000020032744F4805421469F
:100B00003846FFF703FEF0BD30B504460D462946D2
:100B10002046FFF726FEFFF707FEFE480088FE4945
:100B2000088030BD30B503460C461546FB4880882A
:100B3000A0F51341413905D0F8488088A0F5D0418F
:100B4000043914D1F549087AFFF7D6FD1812FFF7DA
:100B5000D7FDD8B2FFF7D4FDF049487AFFF7CCFDB6
:100B60002012FFF7CDFDE0B2FFF7CAFD12E0EB481F
:100B70008079012804D1E9480088401EC01A83B258
:100B8000E649087A1946FFF7C1FDE449487A21464B
:100B9000FFF7BCFDE148C0794FF0C0410880DE4856
:100BA000058030BD10B50446002C3DD1DB4988716D
:100BB000F02008804FF4A070488008468088A0F597
:100BC0001341413905D0D5488088A0F5D04104397A
:100BD00014D12C20D149C8712A2008722B204872C8
:100BE00008468088A0F5D04104394ED14FF4A0705A
:100BF000CA4908804FF4F070488046E0C7488088B2
:100C0000A0F50941893907D12220C449C8714E2075
:100C100008724F20487238E02220C049C871202055
:100C200008722120487230E0BC488088A0F5D0418D
:100C300004392AD00120B94988714FF4A070088086
:100C4000F020488008468088A0F51341413907D13B
:100C50002C20B249C8712A2008722B20487214E057
:100C6000AE488088A0F50941893907D12220AB49D7
:100C7000C8714F2008724E20487206E02220A74912
:100C8000C87121200872202048720020FFF755FE0D
:100C900010BD00B597B00220019000200290052001
:100CA000039000200490059006904FF0805007902C
:100CB00000200890099008200A9010200B90002036
:100CC0000C900E900F9010904FF4805011900020D7
:100CD00012901390149001A81590169008A802F095
:100CE00094FA0121002002F0F1FB17B000BD70B5AD
:100CF0000446002689480588408845430021084667
:100D0000FFF72FFDFFF710FD00BF02E082480480CF
:100D1000761CAE42FAD370BD08B5FFF7BAFF0121C9
:100D2000080203F038F80121682003F041F84CF282
:100D30000370ADF8000003208DF8020018208DF834
:100D400003006946764802F07DFD4FF68070ADF8ED
:100D5000000003208DF8020018208DF8030069467A
:100D6000704802F06FFD0220ADF8000003208DF8FE
:100D7000020010208DF8030069466A4802F062FD07
:100D80000221684802F009FE4FF40050ADF800005F
:100D900003208DF8020010208DF80300694660489A
:100DA00002F050FD4FF40B60ADF8000003208DF809
:100DB000020018208DF803006946594802F042FDF0
:100DC0004FF68070ADF8000018208DF80300032066
:100DD0008DF802006946534802F034FD8020ADF8DA
:100DE000000018208DF8030003208DF802006946EA
:100DF0004B4802F027FD02214A4802F0D0FD40F6A0
:100E0000FF7002F051F80221464802F0C6FD40F69C
:100E1000FF7002F049F80020FFF77EFC3F49888010
:100E200008468088FF280ADB08468088A0F57F41B5
:100E3000FF3904D039488088B0F5134F4BD1D32007
:100E4000FFF75AFCFFF75FFCFFF75DFCFFF75BFC69
:100E500032498880084680884FF6FF7101EA0020F9
:100E60002E498880FFF74FFC2C49898808432B497D
:100E7000888008468088A0F5134141391BD0BF20E7
:100E8000FFF73AFCFFF73FFCFFF73DFCFFF73BFCA9
:100E9000FFF739FC21498880084680884FF6FF71AA
:100EA00001EA00201D498880FFF72DFC1B49898835
:100EB00008431A49888019488088A0F513414139B0
:100EC00009D016488088A0F5D041043903D049F2F2
:100ED0004130124988801148818813A003F0D6F967
:100EE0000E488088A0F5134141397DD1CF20FFF70E
:100EF00003FC0020FFF704FCC120FFF701FC3020B9
:100F0000FFF7FEFBED20FFF7F7FB6420FFF7F8FB90
:100F1000032011E0140000200000026038000020CF
:100F20000014014000180140204C43442049443A39
:100F300025780D0A00000000FFF7E2FB1220FFF702
:100F4000DFFB8120FFF7DCFBE820FFF7D5FB8520E6
:100F5000FFF7D6FB1020FFF7D3FB7A20FFF7D0FB7B
:100F6000CB20FFF7C9FB3920FFF7CAFB2C20FFF786
:100F7000C7FB0020FFF7C4FB3420FFF7C1FB0220B2
:100F8000FFF7BEFBF720FFF7B7FB2020FFF7B8FB0A
:100F9000EA20FFF7B1FB0020FFF7B2FB0020FFF7CC
:100FA000AFFBC020FFF7A8FB1B20FFF7A9FBC12068
:100FB000FFF7A2FB0120FFF7A3FBC520FFF79CFB77
:100FC0003020FFF79DFB3020FFF79AFBC720FFF78B
:100FD00093FBB720FFF794FB3620FFF78DFB4820EB
:100FE000FFF78EFB3A2000E0ABE0FFF785FB5520D2
:100FF000FFF786FBB120FFF77FFB0020FFF780FBA8
:101000001A20FFF77DFBB620FFF776FB0A20FFF7DB
:1010100077FBA220FFF774FBF220FFF76DFB0020A7
:10102000FFF76EFB2620FFF767FB0120FFF768FB49
:10103000E020FFF761FB0F20FFF762FB2A20FFF79C
:101040005FFB2820FFF75CFB0820FFF759FB0E2011
:10105000FFF756FB0820FFF753FB5420FFF750FB28
:10106000A920FFF74DFB4320FFF74AFB0A20FFF7BB
:1010700047FB0F20FFF744FB0020FFF741FB002058
:10108000FFF73EFB0020FFF73BFB0020FFF738FB9C
:10109000E120FFF731FB0020FFF732FB1520FFF7BF
:1010A0002FFB1720FFF72CFB0720FFF729FB112050
:1010B000FFF726FB0620FFF723FB2B20FFF720FB83
:1010C0005620FFF71DFB3C20FFF71AFB0520FFF71A
:1010D00017FB1020FFF714FB0F20FFF711FB3F2039
:1010E000FFF70EFB3F20FFF70BFB0F20FFF708FB7E
:1010F0002B20FFF701FB0020FFF702FB0020FFF78A
:10110000FFFA0120FFF7FCFA3F20FFF7F9FA2A2047
:10111000FFF7F2FA0020FFF7F3FA0020FFF7F0FAEA
:101120000020FFF7EDFAEF20FFF7EAFA1120FFF7B2
:10113000E3FA782001F0B8FE2920FFF7DDFA01F08C
:101140000FBAFE488088A0F5D04104397ED1112025
:10115000FFF7D2FA142001F0A7FED020FFF7CCFA57
:101160000720FFF7CDFA4220FFF7CAFA1D20FFF74C
:10117000C7FAD120FFF7C0FA0020FFF7C1FA1A2002
:10118000FFF7BEFA0920FFF7BBFAD220FFF7B4FA47
:101190000120FFF7B5FA2220FFF7B2FAC020FFF7CF
:1011A000ABFA1020FFF7ACFA3B20FFF7A9FA0020BA
:1011B000FFF7A6FA0220FFF7A3FA1120FFF7A0FA23
:1011C000C520FFF799FA0320FFF79AFAC820FFF726
:1011D00093FA0020FFF794FA2520FFF791FA2120D7
:1011E000FFF78EFA0520FFF78BFA0020FFF788FA49
:1011F0000A20FFF785FA6520FFF782FA2520FFF71E
:101200007FFA7720FFF77CFA5020FFF779FA0F205A
:10121000FFF776FA0020FFF773FAF820FFF76CFA71
:101220000120FFF76DFAFE20FFF766FA0020FFF7B6
:1012300067FA0220FFF764FA2020FFF75DFA3620F4
:10124000FFF75AFA0820FFF75BFA00E02AE03A209D
:10125000FFF752FA5520FFF753FA2B20FFF74CFA0D
:101260000020FFF74DFA0020FFF74AFA0120FFF7B0
:1012700047FA3F20FFF744FA2A20FFF73DFA002003
:10128000FFF73EFA0020FFF73BFA0120FFF738FA9C
:10129000DF20FFF735FA782001F006FE2920FFF75E
:1012A0002BFA4CE7A5488088A0F5134125397DD15C
:1012B00047F6F001E520FFF729FA4FF4807101208D
:1012C000FFF724FA4FF4E0610220FFF71FFA41F222
:1012D00030010320FFF71AFA00210420FFF716FA65
:1012E00040F202210820FFF711FA00210920FFF740
:1012F0000DFA00210A20FFF709FA00210C20FFF760
:1013000005FA00210D20FFF701FA00210F20FFF759
:10131000FDF900211020FFF7F9F907211120FFF74F
:10132000F5F900211220FFF7F1F900211320FFF752
:10133000EDF900210720FFF7E9F941F29061102053
:10134000FFF7E4F940F227211120FFF7DFF99D2193
:101350001220FFF7DBF94FF4C8511320FFF7D6F93D
:1013600025212920FFF7D2F90D212B20FFF7CEF9F7
:1013700007213020FFF7CAF940F203313120FFF78F
:10138000C5F903213220FFF7C1F940F206213520CB
:10139000FFF7BCF908213620FFF7B8F940F2064103
:1013A0003720FFF7B3F94FF4417100E058E03820DF
:1013B000FFF7ACF907213920FFF7A8F940F20261E5
:1013C0003C20FFF7A3F908213D20FFF79FF90021FA
:1013D0005020FFF79BF9EF215120FFF797F90021EB
:1013E0005220FFF793F940F23F115320FFF78EF997
:1013F0004FF427416020FFF789F901216120FFF7B1
:1014000085F900216A20FFF781F900218020FFF78C
:101410007DF900218120FFF779F900218220FFF773
:1014200075F900218320FFF771F900218420FFF76F
:101430006DF900218520FFF769F910219020FFF751
:1014400065F94FF4C0619220FFF760F940F2331163
:101450000720FFF75BF922210020FFF757F96EE61E
:1014600036488088A0F51341283969D141F28F01AF
:10147000EC20FFF74BF941F23421EF20FFF746F95A
:101480004FF480710120FFF741F94FF4E061022031
:10149000FFF73CF941F230010320FFF737F9002153
:1014A0000420FFF733F940F202210820FFF72EF95C
:1014B00000210920FFF72AF900210A20FFF726F969
:1014C00001210C20FFF722F900210D20FFF71EF962
:1014D00000210F20FFF71AF900211020FFF716F95D
:1014E00007211120FFF712F900211220FFF70EF952
:1014F00000211320FFF70AF901210720FFF706F961
:10150000322001F0D1FC41F290411020FFF7FEF8AB
:1015100040F227211120FFF7F9F8322001F0C4FC36
:101520008A211220FFF7F2F8322001F0BDFC4FF4BF
:10153000D0511320FFF7EAF8062102E0380000201E
:101540008BE02920FFF7E2F80D212B20FFF7DEF8D2
:10155000322001F0A9FC00212020FFF7D7F800215C
:101560002120FFF7D3F8322001F09EFC002130202B
:10157000FFF7CCF840F204613120FFF7C7F840F2E2
:1015800005313220FFF7C2F800213520FFF7BEF801
:1015900040F609413620FFF7B9F84FF401713720C2
:1015A000FFF7B4F840F201313820FFF7AFF840F20E
:1015B00007713920FFF7AAF800213C20FFF7A6F8B1
:1015C00040F60A213D20FFF7A1F8322001F06CFC23
:1015D00000215020FFF79AF8EF215120FFF796F8ED
:1015E00000215220FFF792F840F23F115320FFF7FD
:1015F0008DF84FF427416020FFF788F80121612022
:10160000FFF784F800216A20FFF780F8002180208E
:10161000FFF77CF800218120FFF778F80021822075
:10162000FFF774F800218320FFF770F80021842071
:10163000FFF76CF800218520FFF768F81021902053
:10164000FFF764F84FF4C0619220FFF75FF840F2B3
:1016500033110720FFF75AF871E5FE488088A0F59E
:10166000134120397ED10846FFF750F84FF48071BE
:101670000120FFF74BF84FF4E0610220FFF746F836
:1016800041F230010320FFF741F800210420FFF769
:101690003DF840F202210820FFF738F80021092028
:1016A000FFF734F800210A20FFF730F801210C2061
:1016B000FFF72CF800210D20FFF728F800210F205C
:1016C000FFF724F8322001F0EFFB40F20111072070
:1016D000FFF71CF8322001F0E7FB4FF48651102091
:1016E000FFF714F807211120FFF710F84FF4887165
:1016F0001220FFF70BF84FF430611320FFF706F8C4
:1017000000212920FFF702F844F210012B20FEF7F8
:10171000FDFF00215020FEF7F9FFEF215120FEF7D9
:10172000F5FF00215220FEF7F1FF40F23F11532058
:10173000FEF7ECFF4FF41C516020FEF7E7FF01219C
:101740006120FEF7E3FF00216A20FEF7DFFF0021A2
:101750008020FEF7DBFF00218120FEF7D7FF00216C
:10176000822000E02CE0FEF7D1FF00218320FEF76D
:10177000CDFF00218420FEF7C9FF00218520FEF760
:10178000C5FF10219020FEF7C1FF00219220FEF737
:10179000BDFF01219320FEF7B9FF4FF4887195201A
:1017A000FEF7B4FF00219720FEF7B0FF002198203C
:1017B000FEF7ACFF40F273110720FEF7A7FFBEE46F
:1017C000A4488088A0F5134131397DD141F214013C
:1017D000E720FEF79BFF4FF480710120FEF796FF94
:1017E0004FF400710220FEF791FF41F2380103200F
:1017F000FEF78CFF40F202210820FEF787FF002150
:101800000920FEF783FF00210A20FEF77FFF002159
:101810000C20FEF77BFF00210D20FEF777FF002153
:101820000F20FEF773FF00211020FEF76FFF072146
:101830001120FEF76BFF00211220FEF767FF002149
:101840001320FEF763FFC82001F02EFB41F29061E8
:101850001020FEF75BFF40F227211120FEF756FF14
:10186000322001F021FB0C211220FEF74FFF322025
:1018700001F01AFB4FF400611320FEF747FF11211E
:101880002920FEF743FF0B212B20FEF73FFF3220DC
:1018900001F00AFB00212020FEF738FF40F23F1143
:1018A0002120FEF733FF00213020FEF72FFF4FF4F9
:1018B00083713120FEF72AFF00213220FEF726FF38
:1018C0004FF40171352000E064E0FEF71FFF41F2A4
:1018D0000A613620FEF71AFF40F207713720FEF743
:1018E00015FF4FF483713820FEF710FF40F20771A7
:1018F0003920FEF70BFF40F202413C20FEF706FFC5
:1019000040F60F413D20FEF701FF00215020FEF779
:10191000FDFEEF215120FEF7F9FE00215220FEF7D7
:10192000F5FE40F23F115320FEF7F0FE4FF41C513C
:101930006020FEF7EBFE01216120FEF7E7FE0021AB
:101940006A20FEF7E3FE00218020FEF7DFFE002183
:101950008120FEF7DBFE00218220FEF7D7FE00216A
:101960008320FEF7D3FE00218420FEF7CFFE002166
:101970008520FEF7CBFE10219020FEF7C7FE4FF426
:10198000C0619220FEF7C2FE40F233110720FEF73D
:10199000BDFE86E42F488088A0F5A84108397DD196
:1019A0004FF480710120FEF7B1FE4FF4E061022098
:1019B000FEF7ACFE41F230010320FEF7A7FE002146
:1019C0000420FEF7A3FE40F207210820FEF79EFE4A
:1019D00000210920FEF79AFE00210A20FEF796FE5C
:1019E00000210C20FEF792FE00210D20FEF78EFE56
:1019F00000210F20FEF78AFE142001F055FA41F273
:101A0000B0611020FEF782FE01211120FEF77EFE5C
:101A100001211720FEF77AFE4FF49C711220FEF789
:101A200075FE4FF400611320FEF770FE0921292096
:101A3000FEF76CFE09212A20FEF768FE0021A42093
:101A4000FEF764FE00215020FEF760FEEF215120DA
:101A500002E0000038000020FEF758FE002152206E
:101A6000FEF754FE40F23F115320FEF74FFE4FF4B5
:101A70001C516020FEF74AFE01216120FEF746FE60
:101A800000216A20FEF742FE00218020FEF73EFE84
:101A900000218120FEF73AFE002100E028E08220AC
:101AA000FEF734FE00218320FEF730FE0021842063
:101AB000FEF72CFE00218520FEF728FE1321902042
:101AC000FEF724FE00219220FEF720FE0321932042
:101AD000FEF71CFE4FF488719520FEF717FE40F2CA
:101AE00073110720FEF712FE322001F0DDF9B6E493
:101AF000FE488088A0F5A85105397DD10720FEF762
:101B000005FE322001F0D0F94FF48E711220FEF75D
:101B1000FDFD0121A420FEF7F9FD0F210820FEF7AD
:101B2000F5FD08210A20FEF7F1FD08210D20FEF742
:101B3000EDFD40F207713020FEF7E8FD072131206E
:101B4000FEF7E4FD40F203613220FEF7DFFD4FF4C3
:101B5000E0613320FEF7DAFD40F202213420FEF787
:101B6000D5FD02213520FEF7D1FD41F60F7136205B
:101B7000FEF7CCFD40F207713720FEF7C7FD0021CC
:101B80003820FEF7C3FD00213920FEF7BFFD40F2EB
:101B900007713A20FEF7BAFD00213B20FEF7B6FDA3
:101BA00007213C20FEF7B2FD00213D20FEF7AEFDEF
:101BB000322001F079F901210720FEF7A7FD01216C
:101BC0001720FEF7A3FD322001F06EF94FF4BD514E
:101BD0001020FEF79BFD40F217211120FEF796FD25
:101BE0004FF48F711220FEF791FD4FF470611320B6
:101BF000FEF78CFD002100E094E02A20FEF786FD30
:101C00000A212920FEF782FD4FF49F711220FEF772
:101C10007DFD00215020FEF779FDEF215120FEF7D8
:101C200075FD00215220FEF771FD40F23F11532057
:101C3000FEF76CFD4FF41C516020FEF767FD01219B
:101C40006120FEF763FD00216A20FEF75FFD0021A1
:101C50008020FEF75BFD00218120FEF757FD00216B
:101C60008220FEF753FD00218320FEF74FFD002167
:101C70008420FEF74BFD00218520FEF747FD132150
:101C80009020FEF743FD4FF440719220FEF73EFD99
:101C900005219320FEF73AFD00219520FEF736FD41
:101CA00000219720FEF732FD00219820FEF72EFD3F
:101CB0004FF480710120FEF729FD4FF4E06102200E
:101CC000FEF724FD41F238010320FEF71FFD00213D
:101CD0000420FEF71BFD00210C20FEF717FD00215C
:101CE0000F20FEF713FD00212020FEF70FFD00213D
:101CF0002120FEF70BFD21210720FEF707FD142010
:101D000001F0D2F861210720FEF700FD142001F058
:101D1000CBF840F273110720FEF7F8FC142001F015
:101D2000C3F899E471488088A0F5354105397DD123
:101D30000846FEF7EBFC00210846FEF7E7FC002111
:101D40000846FEF7E3FC00210846FEF7DFFC012110
:101D5000A420FEF7DBFC142001F0A6F84FF41C5180
:101D60006020FEF7D3FC40F202210820FEF7CEFCF3
:101D70004FF405713020FEF7C9FC43F21571312094
:101D8000FEF7C4FC40F204613220FEF7BFFC40F6CF
:101D900016613320FEF7BAFC42F211213420FEF71F
:101DA000B5FC4FF4A8513520FEF7B0FC48F20751BE
:101DB0003620FEF7ABFC41F207413720FEF7A6FCC8
:101DC00041F203413820FEF7A1FC20213920FEF723
:101DD0009DFC1A219020FEF799FC00211020FEF7AF
:101DE00095FC07211120FEF791FC00211220FEF73F
:101DF0008DFC00211320FEF789FC142001F054F81B
:101E00004FF4E6611020FEF781FC40F237111120FB
:101E1000FEF77CFC142001F047F84FF4DC7112202F
:101E2000FEF774FC142001F03FF800E086E04FF468
:101E300070611320FEF76AFC80212A20FEF766FC01
:101E400048212920FEF762FC142001F02DF84FF400
:101E500080710120FEF75AFC4FF4E0610220FEF78A
:101E600055FC41F238010320FEF750FC40F20221FC
:101E70000820FEF74BFC00210A20FEF747FC00215A
:101E80000C20FEF743FC00210D20FEF73FFC302123
:101E90000E20FEF73BFC00215020FEF737FCEF211F
:101EA0005120FEF733FC00215220FEF72FFC40F2B8
:101EB0003F115320FEF72AFC4FF41C516020FEF71F
:101EC00025FC01216120FEF721FC00216A20FEF79C
:101ED0001DFC11219020FEF719FC4FF4C0619220E7
:101EE000FEF714FC40F20241932001E0380000208C
:101EF000FEF70CFC02219420FEF708FC142000F0F1
:101F0000D3FF01210720FEF701FC142000F0CCFFD5
:101F100061210720FEF7FAFB40F273110720FEF75C
:101F2000F5FB00212020FEF7F1FB00212120FEF728
:101F3000EDFB22210020FEF7E9FB11E3FE4880883B
:101F4000A0F5454105397DD10846FEF7DFFB0021AC
:101F50000846FEF7DBFB142000F0A6FF0021084630
:101F6000FEF7D4FB00210846FEF7D0FB002108460F
:101F7000FEF7CCFB00210846FEF7C8FB0121A42098
:101F8000FEF7C4FB142000F08FFF4FF41C516020BB
:101F9000FEF7BCFB40F606010820FEF7B7FB40F257
:101FA00003713020FEF7B2FB01213120FEF7AEFBBA
:101FB00004213220FEF7AAFB4FF481713320FEF793
:101FC000A5FB4FF440713420FEF7A0FB40F2031153
:101FD0003520FEF79BFB1F213620FEF797FB40F2D2
:101FE00003713720FEF792FB01213820FEF78EFBAC
:101FF00004213920FEF78AFB15219020FEF786FB8D
:102000004FF482611020FEF781FB40F2472111203E
:10201000FEF77CFB4FF4DE711220FEF777FB4FF4E6
:1020200060611320FEF772FB782000F03DFF4FF453
:1020300080710120FEF76AFB4FF400710220FEF769
:1020400065FB00E050E041F230010320FEF75EFB4B
:1020500008210A20FEF75AFB00210C20FEF756FB50
:1020600020210E20FEF752FB00210F20FEF74EFB31
:1020700000212020FEF74AFB00212120FEF746FB2D
:102080003D212A20FEF742FB142000F00DFF2D21F8
:102090002920FEF73BFB00215020FEF737FB4DF2D5
:1020A000EF015120FEF732FB00215220FEF72EFBFC
:1020B00040F23F115320FEF729FB00216120FEF77B
:1020C00025FB00216A20FEF721FB4FF4407192208E
:1020D000FEF71CFB05219320FEF718FB4FF48071DF
:1020E0000720FEF713FB3BE293488088A0F50941E7
:1020F00089397DD101210020FEF708FB4AF6A401B1
:102100000320FEF703FB00210C20FEF7FFFA40F648
:102110000C010D20FEF7FAFA4FF42C510E20FEF7B9
:10212000F5FAB0211E20FEF7F1FA42F63F31012008
:10213000FEF7ECFA4FF4C0610220FEF7E7FA002147
:102140001020FEF7E3FA46F278011120FEF7DEFADE
:1021500000210520FEF7DAFA00210620FEF7D6FA64
:102160004EF61C711620FEF7D1FA03211720FEF758
:10217000CDFA40F233210720FEF7C8FA00210B20E8
:10218000FEF7C4FA00210F20FEF7C0FA002141201B
:10219000FEF7BCFA00214220FEF7B8FA00214820E1
:1021A000FEF7B4FA40F23F114920FEF7AFFA0021E2
:1021B0004A20FEF7ABFA00214B20FEF7A7FA4FF4B6
:1021C0006F414420FEF7A2FA00214520FEF79EFA57
:1021D00040F23F114620FEF799FA40F20771302095
:1021E000FEF794FA4FF401713120FEF78FFA00E008
:1021F0003DE04FF401713220FEF788FA40F20251BF
:102200003320FEF783FA40F207513420FEF77EFABE
:102210004FF401713520FEF779FA4FF40171362041
:10222000FEF774FA40F202513720FEF76FFA40F2DF
:1022300002313A20FEF76AFA40F202313B20FEF703
:1022400065FA00212320FEF761FA00212420FEF721
:102250005DFA4FF400412520FEF758FA00214F2087
:10226000FEF754FA00214E20FEF750FA78E132488A
:102270008088A0F58A4131395DD101210020FEF727
:1022800045FA0A2000F010FE41F228611020FEF706
:102290003DFA0E211220FEF739FA40F639211320BB
:1022A000FEF734FA0A2000F0FFFD40211120FEF76E
:1022B0002DFA50211520FEF729FA0A2000F0F4FD2E
:1022C0001E211220FEF722FA0A2000F0EDFD4FF445
:1022D000B1511020FEF71AFA42F639211320FEF709
:1022E00015FA0A2000F0E0FD4FF480710120FEF79E
:1022F0000DFA4FF440710220FEF708FA41F238015E
:102300000320FEF703FA40F202210820FEF7FEF94F
:1023100008210A20FEF7FAF900213020FEF7F6F92D
:1023200040F202413120FEF7F1F94FF4837132207F
:10233000FEF7ECF902E05EE03800002040F20351C5
:102340003320FEF7E3F94FF482713420FEF7DEF913
:1023500040F201313520FEF7D9F940F207713620FD
:10236000FEF7D4F940F205313720FEF7CFF94FF4EC
:1023700002713820FEF7CAF940F60B713920FEF7DA
:10238000C5F902214120FEF7C1F94FF41C5160202C
:10239000FEF7BCF901216120FEF7B8F94FF4047192
:1023A0009020FEF7B3F94FF485719220FEF7AEF955
:1023B00004219320FEF7AAF94FF48071A020FEF7C4
:1023C000A5F901210720FEF7A1F921210720FEF739
:1023D0009DF923210720FEF799F933210720FEF705
:1023E00095F940F233110720FEF790F90021A02063
:1023F000FEF78CF9B4E0F7488088A0F58A413539BA
:10240000F8D130211520FEF781F910219A20FEF72E
:102410007DF920211120FEF779F943F2284110209F
:10242000FEF774F902211220FEF770F941F238012B
:102430001320FEF76BF9282000F036FD1221084624
:10244000FEF764F9282000F02FFD43F22041102010
:10245000FEF75CF943F238011320FEF757F94620E6
:1024600000F022FD00213020FEF750F940F2024139
:102470003120FEF74BF940F207313220FEF746F9E2
:102480004FF441713320FEF741F904213420FEF767
:102490003DF940F201413520FEF738F940F207716D
:1024A0003620FEF733F940F205313720FEF72EF9DA
:1024B0004FF4C2613820FEF729F94FF4C261392088
:1024C000FEF724F94FF480710120FEF71FF94FF455
:1024D00040710220FEF71AF941F230010320FEF7A5
:1024E00015F940F608010820FEF710F908210A2026
:1024F000FEF70CF94FF41C516020FEF707F901219B
:102500006120FEF703F94FF49F719020FEF7FEF86B
:102510004FF480719220FEF7F9F84FF48071932008
:10252000FEF7F4F84FF44051A020FEF7EFF8102129
:10253000A320FEF7EBF801210720FEF7E7F82121A1
:102540000720FEF7E3F823210720FEF7DFF8332109
:102550000720FEF7DBF840F233110720FEF7D6F82C
:102560000020FEF71FFB00209B4908604FF01F0072
:10257000FEF7BDFB40F2FF70FEF7B9FB08BD2DE989
:10258000F04F05460E4617469846DDF824A04FF05A
:10259000000B781B401C1FFA80FB344613E02146D9
:1025A0002846FEF7DEF8FEF7BFF84FF0000906E018
:1025B0005046FEF7A5F809F101001FFA80F9D94548
:1025C000F6DB601C84B24445E9DDBDE8F08F2DE9FF
:1025D000F84F07460D4690469946DDF828B0A8EB1F
:1025E0000700401C80B20090A9EB0500401C1FFAB8
:1025F00080FA002415E0281981B23846FEF7B1F8B8
:10260000FEF792F8002607E004FB0A603BF8100092
:1026100072490880701C86B200988642F4DB601C08
:1026200084B25445E7DBBDE8F88F2DE9FF4F84B055
:1026300081468A460020039002900698A0EB090587
:102640000798A0EB0A06CDF80490CDF800A0002D65
:1026500001DD012705E00DB9002702E04FF0FF374B
:102660006D42002E02DD4FF0010806E016B94FF072
:10267000000802E04FF0FF387642B54201DD2C46FB
:1026800000E034464FF0000B21E0009A91B2019A2D
:1026900090B2FEF739FA0398284403900298304428
:1026A00002900398A04205DD0398001B0390019857
:1026B000384401900298A04205DD0298001B029068
:1026C0000098404400900BF101001FFA80FB601C51
:1026D0008345DADD08B0BDE8F08FF0B504460D465D
:1026E00016461F462B46324629462046FFF79DFFD9
:1026F0003B46224629462046FFF797FF3B46324697
:1027000039462046FFF791FF3B4632462946304680
:10271000FFF78BFFF0BD2DE9F04306460F469046CC
:10272000002445460320A0EB48093CE07A1B91B207
:10273000321990B2FEF7E8F93A1B91B2721990B2D1
:10274000FEF7E2F93A1991B2721990B2FEF7DCF98C
:102750007A1991B2321990B2FEF7D6F97A1991B27C
:10276000321B90B2FEF7D0F93A1991B2721B90B2B7
:10277000FEF7CAF97A1B91B2321B90B2FEF7C4F988
:102780003A1B91B2721B90B2FEF7BEF9641CB9F10C
:10279000000F03DAA000801D814404E0601B80006C
:1027A0000A3081446D1EAC42C0DDBDE8F0832DE9E6
:1027B000F84F05460F4690461E4600970848B0F869
:1027C0000090A8F1200000F0FF080A98002856D1D8
:1027D000002451E038000020B48122420000026051
:1027E000140000200C2E07D108EB4800BC4901EB77
:1027F000800010F804A004E0BA4800EB081010F8BC
:1028000004A04FF0000B31E01AF0800F03D0B6485F
:10281000A0F8009003E0B5480088B3490880394625
:102820002846FEF771F94FEA4A604FEA106A781CB1
:1028300087B2AF480088A84204DCAB48A0F80090FB
:10284000BDE8F88F0098381AB0420BD1009F681C81
:1028500085B2A7480088A84203DCA348A0F80090EE
:10286000EEE706E00BF1010000F0FF0BBBF1080FF3
:10287000CADB00BF601CC4B2B442B3DB44E0002436
:1028800040E00C2E07D108EB4800954901EB800091
:1028900010F804A004E0934800EB081010F804A01E
:1028A0004FF0000B28E01AF0800F03D0394628467D
:1028B000FEF72AF94FEA4A604FEA106A781C87B29D
:1028C0008B484088A84203DC8748A0F80090B7E70F
:1028D0000098381AB0420BD1009F681C85B284481A
:1028E0000088A84203DC8048A0F80090A8E706E032
:1028F0000BF1010000F0FF0BBBF1080FD3DB00BFB1
:10290000601CC4B2B442BCDB7748A0F8009000BFA2
:1029100096E710B50246012000E050430B00A1F1FC
:102920000104E1B2F9D110BD2DE9FF4F81B0074696
:1029300091461E460E9D4FF0000A002439E0301BE0
:10294000401EC1B20A20FFF7E4FFB9FBF0F00A21F4
:10295000B0FBF1F201FB1208BAF1000F16D1701EA4
:10296000A04213DDB8F1000F0ED10020AB4605EBFD
:10297000DB71491001FB0471009088B22B462022C4
:102980000299FFF714FF12E04FF0010A0020AB4656
:1029900005EBDB71491001FB0471009088B208F16E
:1029A0003001CAB22B460299FFF701FF00BF601C3D
:1029B000C4B2B442C3DB05B0BDE8F08F2DE9FF4FD0
:1029C00082B0064692461F46DDE90F48002001907E
:1029D00000254DE0781B401EC1B20A20FFF799FF89
:1029E000BAFBF0F00A21B0FBF1F201FB12090198E9
:1029F00050BB781EA84227DDB9F1000F22D118F094
:102A0000800F0FD008F00100A34604EBDB714910E2
:102A100001FB0561009088B2234630220399FFF73D
:102A2000C6FE0EE008F00100A34604EBDB7149107E
:102A300001FB0561009088B2234620220399FFF72D
:102A4000B6FE13E00120019008F00100A34604EB5C
:102A5000DB71491001FB0561009088B209F130017A
:102A6000CAB223460399FFF7A2FE00BF681CC5B295
:102A7000BD42AFDB06B0BDE8F08F2DE9F847044654
:102A80000D4690469946DDE9096704F0FF0A08EB18
:102A900004001FFA80F809EB05001FFA80F916E020
:102AA000444502DB5446A81985B24D4500DB14E0CD
:102AB000002000903A78334629462046FFF777FEFB
:102AC000304606EBD07104EB61018CB27F1C387884
:102AD0007E2802DC38782028E2DA00BFBDE8F887DB
:102AE000624F0008D6530008140000201600002092
:102AF0003800002000BF411E89B20800FBD170479A
:102B00000022002107E042F6E06200E0521E002AA7
:102B1000FCD14B1C99B28142F5DB704700220021A9
:102B200007E0482201E0531E9AB2002AFBDC4B1C4E
:102B300099B28142F5DB704708B50121042001F00C
:102B400037F94FF44070ADF8000003208DF8020013
:102B500014208DF803006946B04800F073FE012090
:102B6000AF490860AF49C1F8A4014FF00500FFF775
:102B7000C7FF08BD10B50120A94908604FF0050046
:102B8000FFF7B8FF0120A749C1F8A4010520FFF70E
:102B9000B1FF0020A24908604FF00500FFF7AAFF2F
:102BA0000020A049C1F8A4010520FFF7A3FF10BD34
:102BB00010B500209A4908604FF00500FFF79AFF12
:102BC00001209849C1F8A4010520FFF793FF0120D7
:102BD000934908604FF00500FFF78CFF10BD70B5FA
:102BE000044600209049086005461CE014F0800F60
:102BF00003D001208A49086002E00020884908606B
:102C00004FF00100884908604FF00500FFF772FFA0
:102C100000208449C1F8A4010520FFF76BFF60067E
:102C2000040E681CC5B2082DE0DB01207C49086059
:102C30007C49C1F8A4014FF00500FFF75BFF0020BD
:102C40007949086070BD70B50024002517E00120A7
:102C5000754908604FF00500FFF74CFF6006040E51
:102C60007048D0F8200108B144F0010400206E49FA
:102C700008604FF00500FFF73DFF681CC5B2082D46
:102C8000E5DB0020684908604FF00500FFF732FFE0
:102C900000206449C1F8A0010520FFF72BFF0120A7
:102CA000614908604FF00500FFF724FF00205D49EF
:102CB000C1F8A4010520FFF71DFF01205849086055
:102CC000204670BDF8B505460E46002490208DF8CC
:102CD000000001208DF801008DF802608DF803508E
:102CE00051490860FFF746FF00BF08E01DF80400E7
:102CF000FFF775FF0A20FFF7FDFE601CC4B2042C2D
:102D0000F4DBFFF755FFF8BD70B504460D46012012
:102D100045490860FFF72EFF9020FFF760FF022073
:102D2000FFF75DFF2012FFF75AFFE0B2FFF757FFF2
:102D3000FFF73EFFFFF71EFF9020FFF750FF032035
:102D4000FFF74DFF2812FFF74AFFE8B2FFF747FFF2
:102D5000FFF72EFF70BD08B500200090012032491A
:102D60000860FFF707FF9020FFF739FF0020FFF70B
:102D700036FFFFF71DFFFFF7FDFE9120FFF72FFF46
:102D8000FFF761FFADF80000FFF75DFFADF802004F
:102D9000FFF70EFFBDF80200BDF8001040EA012069
:102DA00080B2ADF80000BDF8000008BD2DE9F0418B
:102DB00004460D46002629462046FFF783FFFFF70D
:102DC000CAFF074601F06EFF0646304601F04AFF93
:102DD00080B2BDE8F0812DE9F0470746884600251E
:102DE00000240CE041463846FFF7E0FF824601F040
:102DF00059FF8146294601F011FE0546641CB4F5D1
:102E0000FA7FEFDB2E4600250849304601F068FEC8
:102E1000814601F027FF80B2BDE8F087000801403D
:102E2000A001214200002142A40121420000FA43F6
:102E300010B56FF0040000F07BF92D4800682D49B3
:102E4000B0FBF1F02C4908700846007800EB400117
:102E5000C1EBC0104FF6FF7101EAC000274908809E
:102E600010BD0146244A12784A434FF0E0235A61CC
:102E700000229A611A46126942F001021A6100BFEB
:102E80004FF0E022106910F0010F02D010F4803FE3
:102E9000F6D04FF0E022126922F001024FF0E02359
:102EA0001A6100229A6170470146144A12884A4307
:102EB0004FF0E0235A6100229A611A46126942F0EB
:102EC00001021A6100BF4FF0E022106910F0010FFB
:102ED00002D010F4803FF6D04FF0E022126922F0C9
:102EE00001024FF0E0231A6100229A61704700004E
:102EF0000000002000127A00180000201A000020B4
:102F000010B54FF4A06000F0C3F810BD014600BF3B
:102F1000704700BF4A4A128812F0400FFAD0C2B27E
:102F2000474B1B1D1A80704710B586B0044601211F
:102F300044F2040000F03CFF414800F0A1FF4FF4D0
:102F40000070ADF8140003208DF8160018208DF8DD
:102F5000170005A93B4800F075FC4FF48060ADF800
:102F6000140004208DF8170005A9364800F06AFC0B
:102F700025208DF8000003208DF801008DF8020057
:102F800001208DF80300684600F087F801940020C6
:102F9000ADF80800ADF80A00ADF80C00ADF810006F
:102FA0000C20ADF80E0001A9254800F0ACFF01226D
:102FB00040F22551224801F03EF80121204801F05D
:102FC0002EF806B010BD10B540F225511C4801F096
:102FD00017F910B31A4801F093F8C4B21A480088E0
:102FE00010F4004F2BD11848008810F4804F0CD0FB
:102FF0000A2C03D000201449088020E012480088E1
:1030000040F400401049088019E00D2C06D10E480C
:10301000008840F480400C49088010E00A4800888D
:10302000C0F30D0009490C5407480088401C0649AC
:10303000088008460088C72801DD0020088010BDF0
:1030400000380140000801401C0000204200002020
:103050000948804709480047FEE7FEE7FEE7FEE72C
:10306000FEE7FEE7FEE7FEE7FEE7FEE70448054968
:10307000054A064B70470000C505000831010008ED
:1030800070010020700700207003002070030020F2
:1030900031490143314A1160704770B50021002366
:1030A0000F22C4780CB32D4C246804F4E064C4F5FA
:1030B000E064210AC1F10403CA40447804FA03F130
:1030C0008478144021430901254C0678A1550478E1
:1030D00004F01F050124AC4005786D114FF0E02687
:1030E00006EB8505C5F8004109E0047804F01F05EA
:1030F0000124AC401B4D0678761145F8264070BD82
:10310000194A0A400243154B1B1F1A60704739B118
:10311000124A121D12680243104B1B1D1A6006E072
:103120000E4A121D126882430C4B1B1D1A60704719
:10313000042808D14FF0E021096941F004014FF063
:10314000E022116107E04FF0E021096921F004015C
:103150004FF0E022116170470000FA050CED00E02D
:1031600000E400E080E100E080FFFF1F30B943F29F
:10317000DB014FF0204242F8201005E043F2D2017B
:103180004FF0204242F820106FF07042411C4FF087
:10319000204343F8212011461A4602EB8002C2F870
:1031A0000411704710280AD118214FF020421166EF
:1031B000402151664FF0FC319166D16610E0182134
:1031C000F84A11604FF040014FF02042C2F88410DD
:1031D0004FF0FC31F44A11604FF02042C2F88C10DD
:1031E00070471820F14908604FF000004FF020416F
:1031F000C1F8A4004FF0FC30ED49086001F1040172
:10320000086001F1040108607047D0E90112114320
:10321000C268114302691143426911438269114333
:10322000C2691143026A1143426A1143826A11431F
:10323000C26A1143026B11434FF02043026843F806
:1032400022108168082908D11A46016852F8211015
:1032500041F04001026843F82210416B0968426B5B
:10326000526841EA0211426B926841EA0221426BC4
:10327000928941EA0241426B128A41EA0251426B51
:10328000127D41EA0261426B926911430268521C4D
:103290004FF0204343F82210C16AB1F5804F1AD194
:1032A000816B0968826B526841EA0211826B9268F5
:1032B00041EA0221826B128A41EA0251826B127D3D
:1032C00041EA0261826B92691143026803EB820258
:1032D000C2F8041108E06FF070414FF0204302681B
:1032E00003EB8202C2F80411704730B500210022BE
:1032F0000023446844F0080485682C43C5682C43C7
:1033000005692C43456944EA4524856944EA453109
:10331000C4692468C5696D6844EA0524C5692D89B6
:1033200044EA0544C5692D7B44EA0562046A2468C1
:10333000056A6D6844EA0524056A2D8944EA054456
:10334000056A2D7B44EA05630468102C05D14FF013
:1033500020442166A266E36607E0924C21604FF0AC
:103360002044C4F88820934C236030BD016841F0AC
:103370001001426841EA4221826841EA42318B4AA7
:103380001160C1680968C268526841EA0221C268D6
:10339000128941EA0241C268127B41EA0261844A11
:1033A0001160016909680269526841EA02210269F3
:1033B000128941EA02410269127B41EA02617E4AB6
:1033C0001160416909684269526841EA0221426913
:1033D000128941EA02414269127B41EA02614FF0DF
:1033E0002042C2F8B0107047002101600221416004
:1033F00000218160C160016141618161C16101623F
:103400004FF480514162490081620021C162016331
:103410000F21426B1160426B5160FF21426B916042
:103420000F21426BD160426B1161426B51610021EF
:10343000426B91610F21826B1160826B5160FF21A1
:10344000826B91600F21826BD160826B1161826B04
:1034500051610021826B9161704710210160002150
:1034600041608160C160016141618161FC21C2698B
:103470001160C2695160C2699160C269D160026A1B
:103480001160026A5160026A9160026AD1607047FD
:103490000021016041608160FC21C2681160C26846
:1034A0005160C2689160C268D160026911600269AE
:1034B0005160026991600269D1604269116042699C
:1034C0005160426991604269D160704751B14FF0DB
:1034D000204252F8202042F001024FF0204343F8EE
:1034E000202009E04FF0204252F82020334B1A40B0
:1034F0004FF0204343F82020704799B1102808D19D
:103500004FF02042126E42F004024FF020431A6640
:103510001DE0244A126842F004024FF02043C3F831
:10352000802014E0102809D14FF02042126E234B66
:10353000DB1E1A404FF020431A6608E0194A126851
:103540001F4B02EA03024FF02043C3F8802070476C
:1035500040B11649096841F004014FF02042C2F819
:10356000A01008E011490968154A01EA02014FF06C
:103570002042C2F8A010704799B1102808D14FF02E
:103580002042126E42F040024FF020431A662DE0B6
:10359000044A126842F040024FF02043C3F88020F2
:1035A00024E00FE0800000A0880000A0A00000A0A0
:1035B000A80000A08C0000A0AC0000A0FEFF0F003F
:1035C000FBFF0F00102808D14FF02042126E684B0D
:1035D0001A404FF020431A6608E0664A1268644BAE
:1035E00002EA03024FF02043C3F8802070470146EF
:1035F0000020102903D14FF02042506F01E05E4AB5
:103600001068704710B5F2B1102807D14FF0204371
:103610005B6E0B434FF02044636632E0B0F5807F71
:1036200008D1564B1B6843EA01034FF02044C4F80D
:10363000843026E0524B1B6843EA01034FF02044DC
:10364000C4F8A4301DE0102807D14FF020435B6E72
:103650008B434FF02044636613E0B0F5807F08D1C0
:10366000464B1B6823EA01034FF02044C4F8843022
:1036700007E0434B1B6823EA01034FF02044C4F8E2
:10368000A43010BD10B5024600200023102A03D13B
:103690004FF02044636E07E0B2F5807F02D1374CD3
:1036A000236801E0364C23680B4201D0012000E082
:1036B000002010BD102807D14FF02042526E8A43DF
:1036C0004FF020435A6613E0B0F5807F08D12B4AB3
:1036D000126822EA01024FF02043C3F8842007E079
:1036E000274A126822EA01024FF02043C3F8A420BF
:1036F000704770B502460020002300240025102AE0
:1037000003D14FF02046736E07E0B2F5807F02D1FF
:103710001A4E336801E01A4E336803EA010403EAE3
:10372000D10514B10DB1012000E0002070BD1028BA
:1037300008D14FF02042526E22EAD1024FF02043CE
:103740005A6613E0B0F5807F08D10C4A126822EA6D
:10375000D1024FF02043C3F8842007E0084A1268E2
:1037600022EAD1024FF02043C3F8A42070470000A2
:10377000BFFF0F00800000A0940000A0840000A004
:10378000A40000A010B50446CA48844208D1012113
:10379000042000F027FB0021042000F023FB46E07A
:1037A000C548844208D10121082000F01BFB0021FC
:1037B000082000F017FB3AE0C048844208D10121FC
:1037C000102000F00FFB0021102000F00BFB2EE07A
:1037D000BB48844208D10121202000F003FB0021D6
:1037E000202000F0FFFA22E0B648844208D10121EF
:1037F000402000F0F7FA0021402000F0F3FA16E034
:10380000B148844208D10121802000F0EBFA002168
:10381000802000F0E7FA0AE0AC48844207D1012199
:10382000801500F0DFFA0021A01500F0DBFA10BDD2
:1038300010B50121084600F0D5FA0021012000F062
:10384000D1FA10BD2DE9F0410246002500260020E6
:1038500000230024002791F803C00CF00F0591F815
:1038600003C01CF0100F03D091F802C04CEA05050C
:1038700091F800C0BCF1000F31D0146800202BE09B
:103880004FF0010C0CFA00F3B1F800C00CEA03068B
:103890009E4220D183004FF00F0C0CFA03F7BC437B
:1038A00005FA03FC4CEA040491F803C0BCF1280FAC
:1038B00006D14FF0010C0CFA00FCC2F814C00AE06B
:1038C00091F803C0BCF1480F05D14FF0010C0CFA80
:1038D00000FCC2F810C0401C0828D1D31460B1F815
:1038E00000C0BCF1FF0F34DD546800202EE000F171
:1038F000080C4FF0010808FA0CF3B1F800C00CEA0C
:1039000003069E4221D183004FF00F0C0CFA03F7FF
:10391000BC4305FA03FC4CEA040491F803C0BCF173
:10392000280F05D100F1080C08FA0CF8C2F8148031
:1039300091F803C0BCF1480F07D100F1080C4FF01B
:10394000010808FA0CF8C2F81080401C0828CED3F1
:103950005460BDE8F0814FF6FF7101800221817053
:103960000421C17070470246002093680B4201D0C9
:10397000012000E0002070470146886880B270474F
:1039800002460020D3680B4201D0012000E0002055
:1039900070470146C86880B2704701617047416155
:1039A00070470AB1016100E041617047C160704732
:1039B0004FF480320A438261816182618269826947
:1039C000704702460020424B18684FF6807318403B
:1039D00040EA021008433E4B186070473D49C861F9
:1039E0007047F0B50A46002300240021002500F0AE
:1039F0000046B6F1004F02D1354EF16901E0344E78
:103A00007168C0F3034583B200F44016B6F5401F59
:103A100008D121F070612E4E766826F070662C4F2A
:103A20007E6012E000F48016B6F5801F06D10326F2
:103A300006FA05F4A14341F0706106E0460D360137
:103A400003FA06F6B14341F0706122B1460D36012A
:103A500003FA06F6314300F00046B6F1004F02D1FA
:103A60001B4EF16101E01A4E7160F0BD30B50022CD
:103A70008B071C0F0F2303FA04F2154B08338C102D
:103A800053F824309343124C08348D1044F82530F9
:103A900023468C1053F824308C07240F00FA04F4CA
:103AA00023430B4C08348D1044F8253030BD0A49AF
:103AB0000860704700080140000C01400010014000
:103AC0000014014000180140001C0140002001408A
:103AD0000000014000002042DC002042DD48006878
:103AE00040F00100DB49086008464068DA490840B8
:103AF000D849486008460068D8490840D549086058
:103B00000846006820F4802008600846406820F4D9
:103B1000FE0048604FF41F0088607047CD49096877
:103B200021F48031CB4A11601146096821F48021CB
:103B30001160B0F5803F03D0B0F5802F0ED106E0C4
:103B4000C449096841F48031C24A116007E0C149A3
:103B5000096841F4A021BF4A116000E000BF00BF26
:103B6000704710B501460022002300204A11012AA7
:103B700002D1B84C236806E0022A02D1B54C236A70
:103B800001E0B44C636A01F01F02012494401C421E
:103B900001D0012000E0002010BD38B500200090C9
:103BA0000024002500BF3120FFF7DBFF0546009809
:103BB000401C00900098B0F5A06F01D0002DF2D00D
:103BC0003120FFF7CEFF08B1012400E00024204699
:103BD00038BD014600209F4A106820F0F80040EAF6
:103BE000C100106070479E4908607047024600207F
:103BF000984B586820F47C1042EA01031843954B17
:103C00005860704796490866704701460020914AFF
:103C1000506820F003000843506070478D484068AA
:103C200000F00C007047014600208A4A506820F0DE
:103C3000F00008435060704701460020854A5068F4
:103C400020F4E06008435060704701460020814A3C
:103C5000506820F4605040EAC1005060704729B1BC
:103C60007C4A527A02437B4B5A7204E0794A527A78
:103C70008243784B5A7270477A4908607047014610
:103C80000020744A506820F4404008435060704758
:103C90000021754A11706F4A82F82010012802D065
:103CA000042808D103E001216F4A117004E00521C6
:103CB0006D4A117000E000BF00BF70476B4908609B
:103CC00070476449096A0143624A11627047674953
:103CD00044390860704730B50021002200240023D9
:103CE0005C4D6D6805F00C0121B1042905D008294F
:103CF00023D105E05E4D056022E05D4D05601FE0CB
:103D0000544D6D6805F47012524D6D6805F48034A1
:103D1000022505EB92421CB9564D554305600BE058
:103D20004C4D6D6815F4003F03D0524D554305606E
:103D300002E04F4D5543056002E04D4D056000BF68
:103D400000BF444D6D6805F0F00109094A4D6B5CF8
:103D50000568DD4045603F4D6D6805F4E061090A86
:103D6000454D6B5C4568DD4085603A4D6D6805F4F6
:103D70006051C90A404D6B5C4568DD40C560354DFA
:103D80006D6805F44041890B3C4D6B5CC568B5FB23
:103D9000F3F5056130BD29B12E4A526902432D4B1E
:103DA0005A6104E02B4A526982432A4B5A61704798
:103DB00029B1284A92690243264B9A6104E0254AB8
:103DC00092698243234B9A61704729B1214AD26993
:103DD0000243204BDA6104E01E4AD26982431D4B44
:103DE000DA61704729B11B4AD2680243194BDA6085
:103DF00004E0184AD2688243164BDA60704729B152
:103E0000144A12690243134B1A6104E0114A126901
:103E10008243104B1A61704714494039086070475B
:103E20000F49C86470470B49C87170470948406A18
:103E300040F0807007494862704701460020054AFB
:103E400092680A4201D0012000E000207047014939
:103E500088727047001002400000FFF8FFFFF6FE76
:103E600000004242D80042422010024080044242F8
:103E700000127A0000093D002400002034000020D8
:103E800010B50446FB48844209D101218803FFF79D
:103E9000A9FF00214FF48040FFF7A4FF32E0F6486D
:103EA000844209D101214804FFF7A9FF00214FF402
:103EB0000030FFF7A4FF25E0F048844209D101213A
:103EC0008804FFF79CFF00214FF48020FFF797FF45
:103ED00018E0EB48844209D10121C804FFF78FFFA5
:103EE00000214FF40020FFF78AFF0BE0E5488442F1
:103EF00008D101210805FFF782FF00214FF480104F
:103F0000FFF77DFF10BD2DE9F04786B005460E4650
:103F10000024A24600BFA1460027B08900B100BF1F
:103F20002F462C8A4CF6FF700440F08804432C8204
:103F3000AC894EF6F3100440B0883189084371898A
:103F400008430443AC81AC8A4FF6FF400440B0897B
:103F50000443AC8201A8FFF7BEFEC648874202D1E7
:103F6000DDF810A001E0DDF80CA0A88910F4004FE6
:103F700008D00AEBCA0000EB0A1031684900B0FB18
:103F8000F1F807E00AEBCA0000EB0A10316889007B
:103F9000B0FBF1F86420B8FBF0F0040120096421C3
:103FA00001FB1089A88910F4004F08D0322000EBE3
:103FB000C900B0FBF1F000F00700044308E0322034
:103FC00000EB09106421B0FBF1F000F00F00044396
:103FD0002C8106B0BDE8F0874FF416510160002136
:103FE0008180C18001810C21418100218181704744
:103FF00010B502460020108A4FF2FF0318400B88CC
:104000004C8823438C882343CC8823431843108255
:1040100010BD0021018041808180C180704721B1A5
:10402000828942F40052828104E082894DF6FF7356
:104030001A4082817047F0B503460024002600250F
:104040000020A1F510676A3F00D100BF1846C1F3F8
:10405000421401F01F06012707FA06F5012C01D1D1
:104060000C3004E0022C01D1103000E014301AB101
:1040700007682F43076002E00768AF430760F0BDA1
:104080001AB1838A0B43838202E0838A8B43838243
:104090007047028A4FF6F0731A400282028A0A437E
:1040A0000282704782894FF2FF731A4082818289AF
:1040B0000A438281704721B1828942F002028281E3
:1040C00004E082894FF6FD731A4082817047028AAC
:1040D0004FF6DF731A400282028A0A430282704757
:1040E00021B1028A42F48042028204E0028A4BF645
:1040F000FF731A4002827047C1F308028280704742
:1041000001468888C0F308007047818941F00101A9
:1041100081817047028BD2B20283028B42EA012274
:1041200002837047028B02F47F420283028B0A43B0
:104130000283704721B1828A42F02002828204E029
:10414000828A4FF6DF731A408282704721B1828AD9
:1041500042F01002828204E0828A4FF6EF731A4026
:104160008282704721B1828A42F00802828204E092
:10417000828A4FF6F7731A408282704721B1828992
:1041800042F40042828103E08289C2F30E028281FE
:10419000704721B1828A42F40062828204E0828AFE
:1041A0004FF2FF731A4082827047828A4FF6FB7388
:1041B0001A408282828A0A438282704721B1828AAF
:1041C00042F00202828204E0828A4FF6FD731A40B6
:1041D0008282704702460020B1F5007F00D100BF07
:1041E00013880B4201D0012000E00020704701F449
:1041F0000072B2F5007F00D100BFCA430280704751
:1042000070B502460024002300250020A1F51066A9
:104210006A3E00D100BFC1F3421501F01F03012621
:1042200006FA03F3012D02D19689334006E0022DF0
:1042300002D1168A334001E0968A33400C120126DF
:1042400006FA04F41688344013B10CB1012000E0E2
:10425000002070BD10B500220023A1F510646A3C57
:1042600000D100BF0A1201249440A3B2DC430480B1
:1042700010BD0000003801400044004000480040EC
:10428000004C004000500040704700000FB404494B
:1042900010B503AA029800F0C7F810BC5DF814FB33
:1042A000200000202DE9F0410E4604460020206247
:1042B0002046E168884730B3252805D0D4E901219C
:1042C0009047206A401CF2E7E168204600278847B3
:1042D000050018D0A5F14100192802D820354FF467
:1042E00000673246294620462760FBF75BFF40B156
:1042F000012804D0F61D26F007060836D8E7361D3B
:10430000D6E72846DAE7206ABDE8F08170B50446B2
:104310000D4621461068AFF300802188090502D5BB
:10432000104A7A4402E00F4A7A440E32002104F126
:10433000240307E000F00F064FEA1010965D5E546C
:1043400001F101010028F5D103462078000704D5CA
:10435000702D02D009B1113202232046BDE8704011
:1043600000F006B8A016000070477047704770470D
:104370002DE9F0470D4699469246044600F124087F
:104380000168880604D5E06921F01001216000E091
:104390000120A84202DDA0EB050700E00027A1698B
:1043A00007EB050202EB0900A1EB0000A0612078F9
:1043B000C00602D42046AFF30080002608E0D4E90E
:1043C00001211AF806009047206A401C761C2062E2
:1043D0004E45F4DB2078C0060AD52046AFF30080B6
:1043E00006E0D4E9012130209047206A401C206279
:1043F000381EA7F10107F4DC07E0D4E9012118F821
:1044000005009047206A401C2062281EA5F1010586
:10441000F3DC2046AFF300802078000602D50220AE
:10442000BDE8F0870120FBE7074B70B50D467B44E4
:1044300000F011F80446284600F020F810B14FF0C3
:10444000FF3070BD204670BDE1EAFFFF01694A1CE4
:1044500002610878704700B58FB0CDE901310021C5
:10446000059105497944CDE9031011466846FFF7E7
:1044700019FF0FB000BD0000E5FFFFFF007B00F05B
:1044800080007047754600F029F8AE460500694681
:10449000534620F00700854618B020B5FEF7E6FD2C
:1044A000BDE820404FF000064FF000074FF0000835
:1044B0004FF0000B21F00701AC46ACE8C009ACE8B6
:1044C000C009ACE8C009ACE8C0098D467047044695
:1044D000AFF300802046FBF777FE000000487047EE
:1044E0000C01002021F00042A2F16052B2F5801FC1
:1044F00001F0004328BFD2F17F6C0BD95FEA001CAA
:1045000043EAC20242EB507018BF704728BF20F048
:1045100001007047B2F5801FBCBF184670474FEAD4
:10452000410C1CF5001F02D2084600F096BC70B585
:1045300000F020FA00000089FFF7F6BF4FF00040BE
:10454000A0F58000704700002DE9C04130B4DFF8CD
:10455000A0C23CEA111418BF3CEA131400F0EC802E
:1045600081EA03051CEA111444EAD57418BF1CEA59
:10457000131500F0C780A4EB05044FF0004545EA91
:10458000C12145EAC32341EA505143EA525304F1A1
:104590007F74994204F500344FEAC0204FEAC222EA
:1045A00008BF904200F09C804FEA13650FF240165E
:1045B000765D4FEA134506FB05F7C7F1807706FBEA
:1045C00007F74FEAD737A7FB03687642C8F580386C
:1045D000A7FB06CE38BFA8F1010807FB08E64FF09D
:1045E000000EA6FB028CE6FB03CEDCF1000CCEF144
:1045F000004E38BFAEF1010EA6FB0C584FF000077D
:104600004FF00005E6FB0E87A1FB08C6A0FB07CE16
:1046100016EB0E0645F10005E1FB076515F1E04ECE
:104620007EBFA4F580345FEA46066D4116F180072F
:1046300045F100054FEA17274FEA066647EA056786
:10464000A6F1DE46B6F1805F4FEA15251FD9384640
:1046500024F0010C05EBC471BCF1FE6F01EB0C11F1
:1046600002D8F0BCBDE8008124425CBF01F5801E89
:104670009EEAC47F02D4F0BCBDE80081244238D455
:10468000F0BCA1F1C041BDE8004100F0C1B94FEA62
:10469000D22242EA43524FEAD323A7FB02864FEAD3
:1046A000D02040EA415007FB03661EEA0E0F4FEA96
:1046B000D12105FB026658BFA6EB0056B6EB0056AB
:1046C0004FEA520E4EEAC37E18EB0E0E56EB530E17
:1046D000BDD518EB02085E417F1C55F10005B6E719
:1046E0004FF480154FF000074FF000064FF0000820
:1046F000ADE7F0BC4FF0000001F1C04101F0004116
:10470000BDE8008111EA0C1F0CEA131500D00CE083
:1047100013EA0C1F00F025804FF00000F0BC81EA86
:10472000030101F00041BDE80081F0BCBDE800419B
:1047300081EA030100F06CB9F0BCBDE8004170B53E
:1047400000F018F9097EFC3E00F007B881EA030189
:104750004FF0000001F00041704781EA030100F0D2
:1047600057B9F0BCBDE800414FF000002149704747
:10477000FFFDFBF9F7F5F4F2F0EEEDEBE9E8E6E426
:10478000E3E1E0DEDDDBDAD8D7D5D4D3D1D0CFCDAD
:10479000CCCBCAC8C7C6C5C4C2C1C0BFBEBDBCBBE6
:1047A000BAB9B8B7B6B5B4B3B2B1B0AFAEADACABE1
:1047B000AAA9A8A8A7A6A5A4A3A3A2A1A09F9F9EBB
:1047C0009D9C9C9B9A99999897979695959493936D
:1047D000929191908F8F8E8E8D8C8C8B8B8A898904
:1047E0008888878786858584848383828281818087
:1047F0000000FF070000F87FB0FA80F310FA03F121
:104800000AD0C3F11D0303F580634FEA41504FEA1C
:10481000035202EBD12170474FF0000070470000B7
:10482000DFF848C170B51CEA111E1EBF1CEA131543
:104830009EEA0C0F95EA0C0F00F06F8081EA0304EA
:1048400023EA4C134EEAD47E21EA4C1141F4801144
:1048500043F48013AE44A1FB024CA0FB0365AEF110
:104860007F7E361955EB0C05A1FB034C4CF1000380
:10487000A0FB021C16EB0C06654153F10003094234
:1048800018BF46F0010613F4007F0BD14FEA033145
:104890004FEA0530340341EA155140EA16506FF0F3
:1048A00003020AE04FEAC3214FEAC520F40241EABD
:1048B000555140EA56506FF0020202EB2E4201EBD6
:1048C000025585EACE710AD05FEA440C18BF24F085
:1048D000004450F1000041F1000120EAD47040F2A0
:1048E000FE7C624500D270BDA84214BF4FF08044E8
:1048F0004FF04044002E08BF0024BEF1806FA8BFD7
:10490000A1F1C041BDE8704080F282804FF000000C
:1049100001F1C04101F0004170479EEA0C0F0CEA22
:10492000131518BF95EA0C0F06D04FF0000081EA6E
:10493000030E0EF0004170BD00F01CF88900013E2E
:1049400000F007B800F009B84FEA430C5FEA5C5C7E
:1049500008D081EA030100F05BB84FEA410C5FEA3E
:104960005C5CF6D14FF00000014970470000FF0782
:104970000000F87F0EF1020E2EF0030E5EF8046BBD
:10498000364205D4012A43EB030515F5001F12D862
:10499000012841EB010C1CF5001F0CD80ED14FEA89
:1049A000D17C15F5001F0CEB4C0C0CF1020C08BF70
:1049B0004CEBD37C04E04FF0080C01E04FEAD37CD1
:1049C0000CEB4C0526FA05F606F00706B6F1040CCA
:1049D00006D20EEB860CBDE870404CF0010C60472F
:1049E000DFE80CF0090B02024FF000414FF000002D
:1049F000A1F5002170BD19461046012851EB0104B4
:104A000018BFD4F5001484BF002001F0004170BD30
:104A10000808A0F500114FEA3101704790EA010F34
:104A200048BF81F0004100F12E82421A3CBF801A3B
:104A300089184FEAD0524FF07F4C1CEA410FA2EB8D
:104A4000D15318BF9CEA026F00F03B804FF0004C3E
:104A50004CEA00204CEA012121FA03FC10EB0C0C7B
:104A60001ED202F1FF325FEA1C2040EBC25038BF79
:104A700070471CF07F0F4FEA400C18BFBCF17F4F0E
:104A800038BF7047C3F12003994008BF20F00100F0
:104A9000BCF17F4F38BF7047A0F1C04000F0DDB9D6
:104AA0004FEA3C00000A40EBC25028BF1CF0FF0F49
:104AB0004FEA400CE6D018BFBCF17F4F38BF7047BB
:104AC000EAE79CEA026F05D010EA5C0F08BF00F02D
:104AD0000040704710B500F07AF900BF64FBBE3E9D
:104AE0004FF47F0C1CEAD0121EBF1CEAD11392EACD
:104AF0000C0F93EA0C0F00F0858090EA010F48BF7D
:104B000042F4807240F4000C41F400002CF07F412C
:104B100020F07F4000B58142A2EB03020FF2081C97
:104B2000ACEB504EC0F100009EF800E04FEA4E0E94
:104B300000FB0EFC38BF49004FEA2C1C02F5FA02BC
:104B40000CFB0EF34FEACE1E4FEA112C4FEAC121A7
:104B50000EEB635E42EB22420EFB0CFC4FEA1C5351
:104B600000FB03114FEA112C4FEA01310EFB0CFC44
:104B70004FEADC4C00FB0C11C14228BF09184CEB7A
:104B800003335DF804EB10EB410143EBC250B2F587
:104B90007C0F38BF704729D512F0F00F1CBF00F111
:104BA000C04000F000407047008182838485868782
:104BB00088898B8C8D8E8F919293959697999A9CDC
:104BC0009D9FA0A2A3A5A7A8AAACAEB0B2B3B5B74B
:104BD000B9BCBEC0C2C5C7C9CCCED1D4D7D9DCDF21
:104BE000E2E6E9ECF0F3F7FAFE0000004FEA400CD1
:104BF0000CF1807CBCF17E4F28BF7047B0F1C04003
:104C000000F02BB990EA010F0CEAD11348BF42F42F
:104C10008072624538BF634507D213F47F0F16D008
:104C200080EA010000F00040704710B500F0CFF8B6
:104C3000097EFC3E00F005B880EA010000F000406B
:104C4000704780EA010000F0004000F006B912F45D
:104C50007F0F04BF0248704780EA010000F0FDB8F2
:104C60000000C07FC10DD1F19E0206DB4FEA002398
:104C700043F0004323FA02F07047004207D54FEAA1
:104C80004001B1F1FE4F02D24FF00000704710B565
:104C900000F09DF849922480002070476FEA2000C0
:104CA00070470000B0FA80F310FA03F2C3F19D03DD
:104CB0000AD0D90501EB1220530638BF704700F126
:104CC000010008BF20F00100704700004FF47F0C86
:104CD0001CEAD0121EBF1CEAD11392EA0C0F93EA11
:104CE0000C0F00F0478090EA010F48BF42F4807239
:104CF0004FF0004C4CEA00204CEA012102EB030289
:104D0000A0FB0113A2F50002002918BF43F0010324
:104D10005B0028BF4FEA330342EB22425FEA132CC9
:104D20004CEBC2502EBFBCEB436FB2F57C0F70470B
:104D30004FEA036CBCF1004F08BF20F00100B2F550
:104D40007C0F38BF70470BD582F0FF0212F5803F11
:104D5000C8BF704700F1C040D8BF00F000407047A6
:104D600000F5000C5FEA4C0C48BF7047B0F1C04042
:104D700000F073B890EA010F0CEAD11348BF42F477
:104D80008072624538BF634504D280EA010000F0BA
:104D90000040704710B500F01AF800BF8900013ECE
:104DA00000F007B800F009B85FEA410C5FEA1C6C3C
:104DB00008D080EA010000F050B85FEA400C5FEADA
:104DC0001C6CF6D14FF00040A0F5800070470EF14A
:104DD000020E2EF0030E5EF8044B244204D44FEA78
:104DE0004102B2F17F4F11D84FEA4003B3F17F4F38
:104DF0000CD80ED14FEAD07CB2F17F4F0CEB4C0CAB
:104E00000CF1020C08BF4CEBD17C04E04FF0080C15
:104E100001E04FEAD17C0CEB4C0324FA03F404F0DC
:104E20000704B4F1040C06D20EEB840CBDE810406C
:104E30004CF0010C6047DFE80CF0070802024FF06D
:104E40000040A0F5800010BD0846420018BFD2F116
:104E5000807288BF00F0004010BDFF2141EAD050B1
:104E6000C005704780F0004090EA010F7FF5DDAD8E
:104E700081F0004100F007B890EA010F48BF81F0CF
:104E800000413FF5D2AD421A04D882F00042A0EBB7
:104E9000020011444FEAD0524FF07F4C1CEA410F00
:104EA000A2EBD15318BF9CEA026F4AD04FF0004CDE
:104EB0004CEA00204CEA012121FA03FCB0EB0C0C77
:104EC0000FD412F0FE0F36D05FEA4C001DD5001251
:104ED00040EBC25038BF70471CF03F0F18BF7047FF
:104EE0000BE0A2F101025FEA1C2040EBC25038BF88
:104EF00070471CF07F0F18BF7047C3F12003994023
:104F000014BF401E20F00100704780084FEA1223B2
:104F100008BF7047B0FA80FCA2EB0C02CCF1280C61
:104F200060FA0CF093EA122F04BF00EBC2507047F6
:104F30004FEAC3707047130A5FEADC1008BF70477E
:104F4000F6E79CEA026F04D010EA5C0F08BF00206D
:104F5000704710B5FFF73BFF40DFF63E81F00040A1
:104F6000704700000000000000000000000000008A
:104F700000003F4000000000000000003000400042
:104F800030004000000009000BC03D000BC03D0098
:104F9000090018C024407FE0224031800000180042
:104FA00024C01B000D803240018003801C4027403C
:104FB0001C8007400040100060000000000000005E
:104FC00000000000000000001F8020404020000082
:104FD000402020401F8000000000090006001F80C4
:104FE000060009000000040004003F8004000400E3
:104FF000000000100060000000000000000004003D
:105000000400040004000400000000000040000050
:10501000000000000000002001C006003800400031
:1050200000001F802040204020401F800000000022
:1050300010403FC000400000000018C02140224046
:1050400024401840000010802040244024401B8051
:10505000000002000D0011003FC0014000003C8034
:10506000244024402440238000001F80244024400A
:105070003440038000003000200027C038002000AA
:1050800000001B802440244024401B8000001C00A2
:1050900022C0224022401F80000000000000084083
:1050A000000000000000000000000460000000009C
:1050B0000000000004000A001100208040400900A8
:1050C000090009000900090000000000404020809C
:1050D00011000A00040018002000234024001800DA
:1050E00000001F802040274029401F400000004052
:1050F00007C039000F0001C0004020403FC02440DD
:1051000024401B8000001F80204020402040308031
:10511000000020403FC0204020401F800000204071
:105120003FC024402E4030C0000020403FC02440FB
:105130002E00300000000F001080204022403380FD
:10514000020020403FC0040004003FC02040204037
:1051500020403FC020402040000000602020202050
:105160003FC02000200020403FC024400B0030C042
:10517000204020403FC020400040004000C03FC0D1
:105180003C0003C03C003FC0000020403FC00C403A
:1051900023003FC020001F802040204020401F806F
:1051A000000020403FC024402400180000001F8061
:1051B0002140214020E01FA0000020403FC02440AB
:1051C000260019C0004018C02440244022403180ED
:1051D0000000300020403FC0204030000000200090
:1051E0003F80004000403F80200020003E0001C082
:1051F000070038002000380007C03C0007C0380016
:105200000000204039C0060039C0204000002000C6
:10521000384007C0384020000000304021C0264000
:10522000384020C00000000000007FE04020402007
:105230000000000070000C0003800040000000002F
:10524000402040207FE000000000000020004000DF
:1052500020000000000000100010001000100010DE
:1052600000100000000040000000000000000000EE
:1052700002800540054003C0004020003FC00440BC
:105280000440038000000000038004400440064006
:10529000000000000380044024403FC000400000A4
:1052A00003800540054003400000000004401FC08B
:1052B000244024402000000002E005500550065024
:1052C000042020403FC00440040003C00040000010
:1052D000044027C00040000000000010001004102F
:1052E00027E00000000020403FC00140070004C04C
:1052F0000440204020403FC000400040000007C064
:10530000040007C0040003C00000044007C00440BC
:10531000040003C0004000000380044004400380F8
:105320000000041007F00450044003800000000057
:1053300003800440045007F00010044007C00240FE
:10534000040004000000000006400540054004C0C1
:105350000000000004001F80044000400000040022
:1053600007800040044007C000400400070004C05C
:10537000018006000400060001C0070001C006000D
:105380000000044006C0010006C0044000000410F4
:10539000071004E00180060004000000044005C07E
:1053A0000640044000000000000004007BE04020B4
:1053B0000000000000000000FFF0000000000000FE
:1053C00040207BE00400000000004000800040001E
:1053D000200020004000000000000000000000004D
:1053E0000000000000000000000000001FCC000CC6
:1053F000000000000000000008003000600008000D
:10540000300060000000022003FC1E20022003FC8C
:105410001E200220000000000E1811043FFF10841F
:105420000C78000000000F0010840F3800C00778CF
:1054300018840078000000780F8410C411240E989E
:1054400000E400840008080068007000000000000C
:1054500000000000000000000000000007E0181835
:10546000200440020000000040022004181807E059
:105470000000000000000240024001800FF00180A7
:105480000240024000000080008000800FF8008091
:105490000080008000000001000D000E00000000F0
:1054A00000000000000000000080008000800080FC
:1054B0000080008000800000000C000C0000000054
:1054C00000000000000000000006001800600180DD
:1054D000060018002000000007F00808100410045F
:1054E000080807F000000000080408041FFC00047E
:1054F00000040000000000000E0C101410241044E2
:1055000011840E0C000000000C181004110411048A
:1055100012880C700000000000E00320042408241E
:105520001FFC0024000000001F98108411041104C7
:10553000108810700000000007F0088811041104A2
:1055400018880070000000001C00100010FC130000
:105550001C001000000000000E381144108410845C
:1055600011440E38000000000700088C104410445D
:10557000088807F00000000000000000030C030C86
:105580000000000000000000000000010106000013
:105590000000000000000000008001400220041014
:1055A000080810040000022002200220022002202D
:1055B000022002200000000010040808041002204D
:1055C00001400080000000000E001200100C106C62
:1055D00010800F00000003E00C1813E4142417C41B
:1055E000082807D000000004003C03C41C4007400A
:1055F00000E4001C000410041FFC11041104110439
:105600000E880070000003E00C1810041004100451
:1056100010081C10000010041FFC100410041004DB
:10562000080807F0000010041FFC1104110417C43F
:1056300010040818000010041FFC1104110017C00A
:1056400010000800000003E00C18100410041044BF
:105650001C780040000010041FFC108400800080B3
:1056600010841FFC10040000100410041FFC100420
:1056700010040000000000030001100110011FFED3
:1056800010001000000010041FFC110403801464BB
:10569000181C1004000010041FFC10040004000477
:1056A0000004000C000010041FFC1F0000FC1F0081
:1056B0001FFC1004000010041FFC0C04030000E099
:1056C00010181FFC100007F0080810041004100444
:1056D000080807F0000010041FFC108410801080E0
:1056E00010800F00000007F0081810241024101C70
:1056F000080A07F2000010041FFC1104110011C079
:1057000011300E0C000400000E1C110410841084D3
:1057100010441C3800001800100010041FFC100476
:1057200010001800000010001FF81004000400040E
:1057300010041FF8100010001E0011E0001C007083
:1057400013801C0010001FC0103C00E01F0000E090
:10575000103C1FC000001004180C163401C001C01A
:105760001634180C100410001C00130400FC130461
:105770001C00100000000804101C106410841304A6
:105780001C04101800000000000000007FFE400212
:10579000400240020000000030000C000380006066
:1057A000001C0003000000004002400240027FFE97
:1057B0000000000000000000000020004000400049
:1057C0004000200000000001000100010001000174
:1057D0000001000100010000400040002000000026
:1057E0000000000000000000009801240144014472
:1057F000014400FC000410001FFC008801040104A7
:10580000008800700000000000700088010401049E
:1058100001040088000000000070008801040104F9
:1058200011081FFC0004000000F801440144014479
:10583000014400C800000000010401040FFC110431
:10584000110411001800000000D6012901290129C6
:1058500001C90106000010041FFC008401000100C2
:10586000010400FC000400000104190419FC0004F8
:105870000004000000000000000300010101190104
:1058800019FE0000000010041FFC0024004001B4B9
:10589000010C010400000000100410041FFC0004AF
:1058A000000400000000010401FC0104010001FCEF
:1058B0000104010000FC010401FC0084010001005E
:1058C000010400FC0004000000F8010401040104CC
:1058D000010400F80000010101FF0085010401043A
:1058E00000880070000000000070008801040104BE
:1058F000010501FF00010104010401FC0084010411
:10590000010001800000000000CC012401240124DA
:1059100001240198000000000100010007F80104C3
:10592000010400000000010001F80004000400046C
:10593000010801FC0004010001800170000C00104E
:1059400001600180010001F0010C003001C0003055
:10595000010C01F0010000000104018C00740170D1
:10596000018C01040000010101810171000E001889
:1059700001600180010000000184010C0134014438
:105980000184010C00000000000000000000010084
:105990003EFC400240020000000000000000FFFF4B
:1059A0000000000000000000400240023EFC010038
:1059B0000000000000000000600080008000400047
:1059C000400020002000303132333435363738394A
:1059D000414243444546403058003031323334353B
:1059E000363738396162636465664030780000009C
:1059F000105A000800000020380000006C01000868
:105A0000485A0008380000203807000088010008C4
:105A100000A24A040000000000000000010203048C
:105A2000060708090000FFFF00000000000000005A
:105A30000000000000000000010203040102030452
:085A400006070809020406082C
:0400000508000131BD
:00000001FF
